{
  "_format": "hh-sol-artifact-1",
  "contractName": "Swaptor",
  "sourceName": "contracts/Swaptor.sol",
  "abi": [
    {
      "inputs": [],
      "name": "InsufficientFee",
      "type": "error"
    },
    {
      "inputs": [],
      "name": "InvalidChainId",
      "type": "error"
    },
    {
      "inputs": [],
      "name": "InvalidSignature",
      "type": "error"
    },
    {
      "inputs": [],
      "name": "InvalidSwapFunctionCalled",
      "type": "error"
    },
    {
      "inputs": [],
      "name": "SignatureUsed",
      "type": "error"
    },
    {
      "inputs": [],
      "name": "SwapExpired",
      "type": "error"
    },
    {
      "inputs": [],
      "name": "Unauthorized",
      "type": "error"
    },
    {
      "inputs": [],
      "name": "UnauthorizedBuyer",
      "type": "error"
    },
    {
      "anonymous": false,
      "inputs": [
        {
          "indexed": false,
          "internalType": "uint8",
          "name": "version",
          "type": "uint8"
        }
      ],
      "name": "Initialized",
      "type": "event"
    },
    {
      "anonymous": false,
      "inputs": [
        {
          "indexed": true,
          "internalType": "address",
          "name": "previousOwner",
          "type": "address"
        },
        {
          "indexed": true,
          "internalType": "address",
          "name": "newOwner",
          "type": "address"
        }
      ],
      "name": "OwnershipTransferred",
      "type": "event"
    },
    {
      "anonymous": false,
      "inputs": [
        {
          "indexed": true,
          "internalType": "string",
          "name": "id",
          "type": "string"
        }
      ],
      "name": "SwapCancelled",
      "type": "event"
    },
    {
      "anonymous": false,
      "inputs": [
        {
          "indexed": true,
          "internalType": "string",
          "name": "id",
          "type": "string"
        },
        {
          "indexed": true,
          "internalType": "address",
          "name": "offeredERC721",
          "type": "address"
        },
        {
          "indexed": true,
          "internalType": "address",
          "name": "wantedERC721",
          "type": "address"
        },
        {
          "indexed": false,
          "internalType": "uint256",
          "name": "offeredTokenData",
          "type": "uint256"
        },
        {
          "indexed": false,
          "internalType": "uint256",
          "name": "wantedTokenData",
          "type": "uint256"
        },
        {
          "indexed": false,
          "internalType": "uint256",
          "name": "expirationTime",
          "type": "uint256"
        }
      ],
      "name": "SwapDetails",
      "type": "event"
    },
    {
      "anonymous": false,
      "inputs": [
        {
          "indexed": true,
          "internalType": "string",
          "name": "id",
          "type": "string"
        },
        {
          "indexed": true,
          "internalType": "address",
          "name": "seller",
          "type": "address"
        },
        {
          "indexed": true,
          "internalType": "address",
          "name": "buyer",
          "type": "address"
        }
      ],
      "name": "SwapParticipants",
      "type": "event"
    },
    {
      "inputs": [
        {
          "internalType": "bytes",
          "name": "_data",
          "type": "bytes"
        },
        {
          "internalType": "bytes",
          "name": "_signature",
          "type": "bytes"
        }
      ],
      "name": "cancelSwap",
      "outputs": [],
      "stateMutability": "nonpayable",
      "type": "function"
    },
    {
      "inputs": [],
      "name": "feeInUsd",
      "outputs": [
        {
          "internalType": "uint256",
          "name": "",
          "type": "uint256"
        }
      ],
      "stateMutability": "view",
      "type": "function"
    },
    {
      "inputs": [],
      "name": "freeTrialEndTime",
      "outputs": [
        {
          "internalType": "uint256",
          "name": "",
          "type": "uint256"
        }
      ],
      "stateMutability": "view",
      "type": "function"
    },
    {
      "inputs": [
        {
          "internalType": "uint256",
          "name": "_feeInUsd",
          "type": "uint256"
        },
        {
          "internalType": "uint256",
          "name": "_freeTrialEndTime",
          "type": "uint256"
        },
        {
          "internalType": "address",
          "name": "_priceFeed",
          "type": "address"
        }
      ],
      "name": "initialize",
      "outputs": [],
      "stateMutability": "nonpayable",
      "type": "function"
    },
    {
      "inputs": [],
      "name": "owner",
      "outputs": [
        {
          "internalType": "address",
          "name": "",
          "type": "address"
        }
      ],
      "stateMutability": "view",
      "type": "function"
    },
    {
      "inputs": [],
      "name": "priceFeed",
      "outputs": [
        {
          "internalType": "contract AggregatorV3Interface",
          "name": "",
          "type": "address"
        }
      ],
      "stateMutability": "view",
      "type": "function"
    },
    {
      "inputs": [],
      "name": "renounceOwnership",
      "outputs": [],
      "stateMutability": "nonpayable",
      "type": "function"
    },
    {
      "inputs": [
        {
          "internalType": "uint256",
          "name": "_feeInUsd",
          "type": "uint256"
        }
      ],
      "name": "setFeeInUsd",
      "outputs": [],
      "stateMutability": "nonpayable",
      "type": "function"
    },
    {
      "inputs": [
        {
          "internalType": "uint256",
          "name": "_freeTrialEndTime",
          "type": "uint256"
        }
      ],
      "name": "setFreeTrialEndTime",
      "outputs": [],
      "stateMutability": "nonpayable",
      "type": "function"
    },
    {
      "inputs": [
        {
          "internalType": "contract AggregatorV3Interface",
          "name": "_priceFeed",
          "type": "address"
        }
      ],
      "name": "setPriceFeed",
      "outputs": [],
      "stateMutability": "nonpayable",
      "type": "function"
    },
    {
      "inputs": [
        {
          "internalType": "bytes",
          "name": "",
          "type": "bytes"
        }
      ],
      "name": "signatureUsed",
      "outputs": [
        {
          "internalType": "bool",
          "name": "",
          "type": "bool"
        }
      ],
      "stateMutability": "view",
      "type": "function"
    },
    {
      "inputs": [
        {
          "internalType": "bytes",
          "name": "_data",
          "type": "bytes"
        },
        {
          "internalType": "bytes",
          "name": "_signature",
          "type": "bytes"
        }
      ],
      "name": "swapERC20ForERC20",
      "outputs": [],
      "stateMutability": "payable",
      "type": "function"
    },
    {
      "inputs": [
        {
          "internalType": "bytes",
          "name": "_data",
          "type": "bytes"
        },
        {
          "internalType": "bytes",
          "name": "_signature",
          "type": "bytes"
        }
      ],
      "name": "swapERC20ForERC721",
      "outputs": [],
      "stateMutability": "payable",
      "type": "function"
    },
    {
      "inputs": [
        {
          "internalType": "bytes",
          "name": "_data",
          "type": "bytes"
        },
        {
          "internalType": "bytes",
          "name": "_signature",
          "type": "bytes"
        }
      ],
      "name": "swapERC721ForERC20",
      "outputs": [],
      "stateMutability": "payable",
      "type": "function"
    },
    {
      "inputs": [
        {
          "internalType": "bytes",
          "name": "_data",
          "type": "bytes"
        },
        {
          "internalType": "bytes",
          "name": "_signature",
          "type": "bytes"
        }
      ],
      "name": "swapERC721ForERC721",
      "outputs": [],
      "stateMutability": "payable",
      "type": "function"
    },
    {
      "inputs": [
        {
          "internalType": "address",
          "name": "newOwner",
          "type": "address"
        }
      ],
      "name": "transferOwnership",
      "outputs": [],
      "stateMutability": "nonpayable",
      "type": "function"
    },
    {
      "inputs": [
        {
          "internalType": "uint256",
          "name": "_amount",
          "type": "uint256"
        },
        {
          "internalType": "address",
          "name": "_recipient",
          "type": "address"
        }
      ],
      "name": "withdraw",
      "outputs": [],
      "stateMutability": "nonpayable",
      "type": "function"
    }
  ],
  "bytecode": "0x608060405234801561001057600080fd5b50611b4b806100206000396000f3fe60806040526004361061010d5760003560e01c8063870aef08116100a5578063a68a7a3b11610074578063b1b171f011610059578063b1b171f0146102aa578063bb10c829146102ca578063f2fde38b1461031557600080fd5b8063a68a7a3b14610277578063a6ab36f21461028a57600080fd5b8063870aef08146102105780638c396126146102305780638da5cb5b14610246578063a2e3fa4f1461026457600080fd5b80636f94b165116100e15780636f94b16514610183578063715018a6146101a3578063724e78da146101b8578063741bef1a146101d857600080fd5b8062f714ce1461011257806343b8cc861461013457806362324d1d146101475780636bb1a98c1461015a575b600080fd5b34801561011e57600080fd5b5061013261012d3660046116c5565b610335565b005b6101326101423660046117ba565b610378565b6101326101553660046117ba565b61067d565b34801561016657600080fd5b5061017060985481565b6040519081526020015b60405180910390f35b34801561018f57600080fd5b5061013261019e36600461181e565b6108ae565b3480156101af57600080fd5b506101326108bb565b3480156101c457600080fd5b506101326101d3366004611837565b6108cf565b3480156101e457600080fd5b506097546101f8906001600160a01b031681565b6040516001600160a01b03909116815260200161017a565b34801561021c57600080fd5b5061013261022b3660046117ba565b610906565b34801561023c57600080fd5b5061017060995481565b34801561025257600080fd5b506033546001600160a01b03166101f8565b6101326102723660046117ba565b610a45565b6101326102853660046117ba565b610bfb565b34801561029657600080fd5b506101326102a536600461185b565b610dc2565b3480156102b657600080fd5b506101326102c536600461181e565b610f1c565b3480156102d657600080fd5b506103056102e5366004611894565b8051602081830181018051609a8252928201919093012091525460ff1681565b604051901515815260200161017a565b34801561032157600080fd5b50610132610330366004611837565b610f29565b61033d610fb9565b6040516001600160a01b0382169083156108fc029084906000818181858888f19350505050158015610373573d6000803e3d6000fd5b505050565b610380611013565b80609a8160405161039191906118f5565b9081526040519081900360200190205460ff1615156001036103c657604051630d75493360e01b815260040160405180910390fd5b6001609a826040516103d891906118f5565b908152604051908190036020019020805491151560ff1990921691909117905560995442111561042b5760985461040d61106c565b101561042b5760405162976f7560e21b815260040160405180910390fd5b6000806000806000806000806000806104438d611111565b99509950995099509950995099509950995099506104628d8d8a611156565b61046d82828961120d565b600189600381111561048157610481611911565b1461049f57604051639dd0f71360e01b815260040160405180910390fd5b6001600160a01b0384166323b872dd336040516001600160e01b031960e084901b1681526001600160a01b039182166004820152908b16602482015260448101869052606401600060405180830381600087803b1580156104ff57600080fd5b505af1158015610513573d6000803e3d6000fd5b50505050856001600160a01b03166323b872dd8961052e3390565b6040516001600160e01b031960e085901b1681526001600160a01b03928316600482015291166024820152604481018890526064016020604051808303816000875af1158015610582573d6000803e3d6000fd5b505050506040513d601f19601f820116820180604052508101906105a69190611927565b50335b6001600160a01b0316886001600160a01b03168b6040516105ca91906118f5565b604051908190038120907f2b738de59cc31294a4f399ebc9d5591e0b0d1581c8c2bbc803b035b4aa47626790600090a4836001600160a01b0316866001600160a01b03168b60405161061c91906118f5565b6040805191829003822089835260208301889052908201859052907fb34853ca0c57fe68ddaefaf3dfc36a4dc45044e4b2b679bdb19df4ce66b27a389060600160405180910390a450505050505050505050506106796001606555565b5050565b610685611013565b80609a8160405161069691906118f5565b9081526040519081900360200190205460ff1615156001036106cb57604051630d75493360e01b815260040160405180910390fd5b6001609a826040516106dd91906118f5565b908152604051908190036020019020805491151560ff199092169190911790556099544211156107305760985461071261106c565b10156107305760405162976f7560e21b815260040160405180910390fd5b6000806000806000806000806000806107488d611111565b99509950995099509950995099509950995099506107678d8d8a611156565b61077282828961120d565b600289600381111561078657610786611911565b146107a457604051639dd0f71360e01b815260040160405180910390fd5b6001600160a01b0384166323b872dd336040516001600160e01b031960e084901b1681526001600160a01b039182166004820152908b166024820152604481018690526064016020604051808303816000875af1158015610809573d6000803e3d6000fd5b505050506040513d601f19601f8201168201806040525081019061082d9190611927565b506001600160a01b0386166323b872dd89335b6040516001600160e01b031960e085901b1681526001600160a01b0392831660048201529116602482015260448101889052606401600060405180830381600087803b15801561088f57600080fd5b505af11580156108a3573d6000803e3d6000fd5b505050506105a93390565b6108b6610fb9565b609955565b6108c3610fb9565b6108cd60006112d8565b565b6108d7610fb9565b6097805473ffffffffffffffffffffffffffffffffffffffff19166001600160a01b0392909216919091179055565b61090e611013565b80609a8160405161091f91906118f5565b9081526040519081900360200190205460ff16151560010361095457604051630d75493360e01b815260040160405180910390fd5b6001609a8260405161096691906118f5565b908152604051908190036020019020805491151560ff1990921691909117905560008061099285611111565b505050505050509250509150806001600160a01b03166109af3390565b6001600160a01b0316146109ef576040517f82b4290000000000000000000000000000000000000000000000000000000000815260040160405180910390fd5b6109fa858583611156565b81604051610a0891906118f5565b604051908190038120907fbd407d0082e20e5b69bec5f618d97a76d8a2d5c15ef05c9514dd1fa87858a70e90600090a25050506106796001606555565b610a4d611013565b80609a81604051610a5e91906118f5565b9081526040519081900360200190205460ff161515600103610a9357604051630d75493360e01b815260040160405180910390fd5b6001609a82604051610aa591906118f5565b908152604051908190036020019020805491151560ff19909216919091179055609954421115610af857609854610ada61106c565b1015610af85760405162976f7560e21b815260040160405180910390fd5b600080600080600080600080600080610b108d611111565b9950995099509950995099509950995099509950610b2f8d8d8a611156565b610b3a82828961120d565b6003896003811115610b4e57610b4e611911565b14610b6c57604051639dd0f71360e01b815260040160405180910390fd5b6001600160a01b0384166323b872dd336040516001600160e01b031960e084901b1681526001600160a01b039182166004820152908b16602482015260448101869052606401600060405180830381600087803b158015610bcc57600080fd5b505af1158015610be0573d6000803e3d6000fd5b50505050856001600160a01b03166323b872dd896108403390565b610c03611013565b80609a81604051610c1491906118f5565b9081526040519081900360200190205460ff161515600103610c4957604051630d75493360e01b815260040160405180910390fd5b6001609a82604051610c5b91906118f5565b908152604051908190036020019020805491151560ff19909216919091179055609954421115610cae57609854610c9061106c565b1015610cae5760405162976f7560e21b815260040160405180910390fd5b600080600080600080600080600080610cc68d611111565b9950995099509950995099509950995099509950610ce58d8d8a611156565b610cf082828961120d565b6000896003811115610d0457610d04611911565b14610d2257604051639dd0f71360e01b815260040160405180910390fd5b6001600160a01b0384166323b872dd336040516001600160e01b031960e084901b1681526001600160a01b039182166004820152908b166024820152604481018690526064016020604051808303816000875af1158015610d87573d6000803e3d6000fd5b505050506040513d601f19601f82011682018060405250810190610dab9190611927565b506001600160a01b0386166323b872dd893361052e565b600054610100900460ff1615808015610de25750600054600160ff909116105b80610dfc5750303b158015610dfc575060005460ff166001145b610e735760405162461bcd60e51b815260206004820152602e60248201527f496e697469616c697a61626c653a20636f6e747261637420697320616c72656160448201527f647920696e697469616c697a656400000000000000000000000000000000000060648201526084015b60405180910390fd5b6000805460ff191660011790558015610e96576000805461ff0019166101001790555b610e9e611337565b609884905560998390556097805473ffffffffffffffffffffffffffffffffffffffff19166001600160a01b0384161790558015610f16576000805461ff0019169055604051600181527f7f26b83ff96e1f2b6a682f133852f6798a09c465da95921460cefb38474024989060200160405180910390a15b50505050565b610f24610fb9565b609855565b610f31610fb9565b6001600160a01b038116610fad5760405162461bcd60e51b815260206004820152602660248201527f4f776e61626c653a206e6577206f776e657220697320746865207a65726f206160448201527f64647265737300000000000000000000000000000000000000000000000000006064820152608401610e6a565b610fb6816112d8565b50565b6033546001600160a01b031633146108cd5760405162461bcd60e51b815260206004820181905260248201527f4f776e61626c653a2063616c6c6572206973206e6f7420746865206f776e65726044820152606401610e6a565b6002606554036110655760405162461bcd60e51b815260206004820152601f60248201527f5265656e7472616e637947756172643a207265656e7472616e742063616c6c006044820152606401610e6a565b6002606555565b600080609760009054906101000a90046001600160a01b03166001600160a01b031663feaf968c6040518163ffffffff1660e01b815260040160a060405180830381865afa1580156110c2573d6000803e3d6000fd5b505050506040513d601f19601f820116820180604052508101906110e69190611968565b505050915050670de0b6b3a7640000813461110191906119b8565b61110b91906119e5565b91505090565b606060008060008060008060008060008a8060200190518101906111359190611a21565b99509950995099509950995099509950995099509193959799509193959799565b60006111c0836111ba86805190602001206040517f19457468657265756d205369676e6564204d6573736167653a0a3332000000006020820152603c8101829052600090605c01604051602081830303815290604052805190602001209050919050565b906113aa565b9050816001600160a01b0316816001600160a01b031614610f16576040517f8baa579f00000000000000000000000000000000000000000000000000000000815260040160405180910390fd5b468314611246576040517f7a47c9a200000000000000000000000000000000000000000000000000000000815260040160405180910390fd5b81421115611280576040517f2b32713d00000000000000000000000000000000000000000000000000000000815260040160405180910390fd5b6001600160a01b038116158015906112a157506001600160a01b0381163314155b15610373576040517f4862d1fc00000000000000000000000000000000000000000000000000000000815260040160405180910390fd5b603380546001600160a01b0383811673ffffffffffffffffffffffffffffffffffffffff19831681179093556040519116919082907f8be0079c531659141344cd1fd0a4f28419497f9722a3daafe3b4186f6b6457e090600090a35050565b600054610100900460ff166113a25760405162461bcd60e51b815260206004820152602b60248201527f496e697469616c697a61626c653a20636f6e7472616374206973206e6f74206960448201526a6e697469616c697a696e6760a81b6064820152608401610e6a565b6108cd6113ce565b60008060006113b98585611442565b915091506113c681611487565b509392505050565b600054610100900460ff166114395760405162461bcd60e51b815260206004820152602b60248201527f496e697469616c697a61626c653a20636f6e7472616374206973206e6f74206960448201526a6e697469616c697a696e6760a81b6064820152608401610e6a565b6108cd336112d8565b60008082516041036114785760208301516040840151606085015160001a61146c878285856115ec565b94509450505050611480565b506000905060025b9250929050565b600081600481111561149b5761149b611911565b036114a35750565b60018160048111156114b7576114b7611911565b036115045760405162461bcd60e51b815260206004820152601860248201527f45434453413a20696e76616c6964207369676e617475726500000000000000006044820152606401610e6a565b600281600481111561151857611518611911565b036115655760405162461bcd60e51b815260206004820152601f60248201527f45434453413a20696e76616c6964207369676e6174757265206c656e677468006044820152606401610e6a565b600381600481111561157957611579611911565b03610fb65760405162461bcd60e51b815260206004820152602260248201527f45434453413a20696e76616c6964207369676e6174757265202773272076616c60448201527f75650000000000000000000000000000000000000000000000000000000000006064820152608401610e6a565b6000807f7fffffffffffffffffffffffffffffff5d576e7357a4501ddfe92f46681b20a083111561162357506000905060036116a7565b6040805160008082526020820180845289905260ff881692820192909252606081018690526080810185905260019060a0016020604051602081039080840390855afa158015611677573d6000803e3d6000fd5b5050604051601f1901519150506001600160a01b0381166116a0576000600192509250506116a7565b9150600090505b94509492505050565b6001600160a01b0381168114610fb657600080fd5b600080604083850312156116d857600080fd5b8235915060208301356116ea816116b0565b809150509250929050565b634e487b7160e01b600052604160045260246000fd5b604051601f8201601f1916810167ffffffffffffffff81118282101715611734576117346116f5565b604052919050565b600067ffffffffffffffff821115611756576117566116f5565b50601f01601f191660200190565b600082601f83011261177557600080fd5b81356117886117838261173c565b61170b565b81815284602083860101111561179d57600080fd5b816020850160208301376000918101602001919091529392505050565b600080604083850312156117cd57600080fd5b823567ffffffffffffffff808211156117e557600080fd5b6117f186838701611764565b9350602085013591508082111561180757600080fd5b5061181485828601611764565b9150509250929050565b60006020828403121561183057600080fd5b5035919050565b60006020828403121561184957600080fd5b8135611854816116b0565b9392505050565b60008060006060848603121561187057600080fd5b83359250602084013591506040840135611889816116b0565b809150509250925092565b6000602082840312156118a657600080fd5b813567ffffffffffffffff8111156118bd57600080fd5b6118c984828501611764565b949350505050565b60005b838110156118ec5781810151838201526020016118d4565b50506000910152565b600082516119078184602087016118d1565b9190910192915050565b634e487b7160e01b600052602160045260246000fd5b60006020828403121561193957600080fd5b8151801515811461185457600080fd5b805169ffffffffffffffffffff8116811461196357600080fd5b919050565b600080600080600060a0868803121561198057600080fd5b61198986611949565b94506020860151935060408601519250606086015191506119ac60808701611949565b90509295509295909350565b60008160001904831182151516156119e057634e487b7160e01b600052601160045260246000fd5b500290565b600082611a0257634e487b7160e01b600052601260045260246000fd5b500490565b80516004811061196357600080fd5b8051611963816116b0565b6000806000806000806000806000806101408b8d031215611a4157600080fd5b8a5167ffffffffffffffff811115611a5857600080fd5b8b01601f81018d13611a6957600080fd5b8051611a776117838261173c565b8181528e6020838501011115611a8c57600080fd5b611a9d8260208301602086016118d1565b9b50611aae91505060208c01611a07565b9850611abc60408c01611a16565b9750611aca60608c01611a16565b9650611ad860808c01611a16565b955060a08b01519450611aed60c08c01611a16565b935060e08b015192506101008b015191506101208b015190509295989b9194979a509295985056fea2646970667358221220d15a1c1723d2474aaef8278eb149bf694ce1d247cb84fdd2eae21cbe7208b77664736f6c63430008100033",
  "linkReferences": {},
  "deployedLinkReferences": {}
}