{
  "_format": "hh-sol-artifact-1",
  "contractName": "Swaptor",
  "sourceName": "contracts/Swaptor.sol",
  "abi": [
    {
      "inputs": [],
      "name": "InsufficientFee",
      "type": "error"
    },
    {
      "inputs": [],
      "name": "InvalidChainId",
      "type": "error"
    },
    {
      "inputs": [],
      "name": "InvalidSignature",
      "type": "error"
    },
    {
      "inputs": [],
      "name": "InvalidSwapFunctionCalled",
      "type": "error"
    },
    {
      "inputs": [],
      "name": "SignatureUsed",
      "type": "error"
    },
    {
      "inputs": [],
      "name": "SwapExpired",
      "type": "error"
    },
    {
      "inputs": [],
      "name": "Unauthorized",
      "type": "error"
    },
    {
      "inputs": [],
      "name": "UnauthorizedBuyer",
      "type": "error"
    },
    {
      "anonymous": false,
      "inputs": [
        {
          "indexed": false,
          "internalType": "uint8",
          "name": "version",
          "type": "uint8"
        }
      ],
      "name": "Initialized",
      "type": "event"
    },
    {
      "anonymous": false,
      "inputs": [
        {
          "indexed": true,
          "internalType": "address",
          "name": "previousOwner",
          "type": "address"
        },
        {
          "indexed": true,
          "internalType": "address",
          "name": "newOwner",
          "type": "address"
        }
      ],
      "name": "OwnershipTransferred",
      "type": "event"
    },
    {
      "anonymous": false,
      "inputs": [
        {
          "indexed": true,
          "internalType": "string",
          "name": "id",
          "type": "string"
        }
      ],
      "name": "SwapCancelled",
      "type": "event"
    },
    {
      "anonymous": false,
      "inputs": [
        {
          "indexed": true,
          "internalType": "string",
          "name": "id",
          "type": "string"
        },
        {
          "indexed": true,
          "internalType": "address",
          "name": "offeredERC721",
          "type": "address"
        },
        {
          "indexed": true,
          "internalType": "address",
          "name": "wantedERC721",
          "type": "address"
        },
        {
          "indexed": false,
          "internalType": "uint256",
          "name": "offeredTokenData",
          "type": "uint256"
        },
        {
          "indexed": false,
          "internalType": "uint256",
          "name": "wantedTokenData",
          "type": "uint256"
        },
        {
          "indexed": false,
          "internalType": "uint256",
          "name": "expirationTime",
          "type": "uint256"
        }
      ],
      "name": "SwapDetails",
      "type": "event"
    },
    {
      "anonymous": false,
      "inputs": [
        {
          "indexed": true,
          "internalType": "string",
          "name": "id",
          "type": "string"
        },
        {
          "indexed": true,
          "internalType": "address",
          "name": "seller",
          "type": "address"
        },
        {
          "indexed": true,
          "internalType": "address",
          "name": "buyer",
          "type": "address"
        }
      ],
      "name": "SwapParticipants",
      "type": "event"
    },
    {
      "inputs": [
        {
          "internalType": "bytes",
          "name": "_data",
          "type": "bytes"
        },
        {
          "internalType": "bytes",
          "name": "_signature",
          "type": "bytes"
        }
      ],
      "name": "cancelSwap",
      "outputs": [],
      "stateMutability": "nonpayable",
      "type": "function"
    },
    {
      "inputs": [],
      "name": "feeInUsd",
      "outputs": [
        {
          "internalType": "uint256",
          "name": "",
          "type": "uint256"
        }
      ],
      "stateMutability": "view",
      "type": "function"
    },
    {
      "inputs": [],
      "name": "freeTrialEndTime",
      "outputs": [
        {
          "internalType": "uint256",
          "name": "",
          "type": "uint256"
        }
      ],
      "stateMutability": "view",
      "type": "function"
    },
    {
      "inputs": [
        {
          "internalType": "uint256",
          "name": "_feeInUsd",
          "type": "uint256"
        },
        {
          "internalType": "uint256",
          "name": "_freeTrialEndTime",
          "type": "uint256"
        },
        {
          "internalType": "address",
          "name": "_priceFeed",
          "type": "address"
        }
      ],
      "name": "initialize",
      "outputs": [],
      "stateMutability": "nonpayable",
      "type": "function"
    },
    {
      "inputs": [],
      "name": "owner",
      "outputs": [
        {
          "internalType": "address",
          "name": "",
          "type": "address"
        }
      ],
      "stateMutability": "view",
      "type": "function"
    },
    {
      "inputs": [],
      "name": "renounceOwnership",
      "outputs": [],
      "stateMutability": "nonpayable",
      "type": "function"
    },
    {
      "inputs": [
        {
          "internalType": "uint256",
          "name": "_freeTrialEndTime",
          "type": "uint256"
        }
      ],
      "name": "setFreeTrialEndTime",
      "outputs": [],
      "stateMutability": "nonpayable",
      "type": "function"
    },
    {
      "inputs": [
        {
          "internalType": "bytes",
          "name": "",
          "type": "bytes"
        }
      ],
      "name": "signatureUsed",
      "outputs": [
        {
          "internalType": "bool",
          "name": "",
          "type": "bool"
        }
      ],
      "stateMutability": "view",
      "type": "function"
    },
    {
      "inputs": [
        {
          "internalType": "bytes",
          "name": "_data",
          "type": "bytes"
        },
        {
          "internalType": "bytes",
          "name": "_signature",
          "type": "bytes"
        }
      ],
      "name": "swapERC20ForERC20",
      "outputs": [],
      "stateMutability": "payable",
      "type": "function"
    },
    {
      "inputs": [
        {
          "internalType": "bytes",
          "name": "_data",
          "type": "bytes"
        },
        {
          "internalType": "bytes",
          "name": "_signature",
          "type": "bytes"
        }
      ],
      "name": "swapERC20ForERC721",
      "outputs": [],
      "stateMutability": "payable",
      "type": "function"
    },
    {
      "inputs": [
        {
          "internalType": "bytes",
          "name": "_data",
          "type": "bytes"
        },
        {
          "internalType": "bytes",
          "name": "_signature",
          "type": "bytes"
        }
      ],
      "name": "swapERC721ForERC20",
      "outputs": [],
      "stateMutability": "payable",
      "type": "function"
    },
    {
      "inputs": [
        {
          "internalType": "bytes",
          "name": "_data",
          "type": "bytes"
        },
        {
          "internalType": "bytes",
          "name": "_signature",
          "type": "bytes"
        }
      ],
      "name": "swapERC721ForERC721",
      "outputs": [],
      "stateMutability": "payable",
      "type": "function"
    },
    {
      "inputs": [
        {
          "internalType": "address",
          "name": "newOwner",
          "type": "address"
        }
      ],
      "name": "transferOwnership",
      "outputs": [],
      "stateMutability": "nonpayable",
      "type": "function"
    },
    {
      "inputs": [
        {
          "internalType": "uint256",
          "name": "_amount",
          "type": "uint256"
        },
        {
          "internalType": "address",
          "name": "_recipient",
          "type": "address"
        }
      ],
      "name": "withdraw",
      "outputs": [],
      "stateMutability": "nonpayable",
      "type": "function"
    }
  ],
  "bytecode": "0x608060405234801561001057600080fd5b50611a68806100206000396000f3fe6080604052600436106100dc5760003560e01c80638c3961261161007f578063a68a7a3b11610059578063a68a7a3b146101f8578063a6ab36f21461020b578063bb10c8291461022b578063f2fde38b1461027657600080fd5b80638c396126146101a75780638da5cb5b146101bd578063a2e3fa4f146101e557600080fd5b80636bb1a98c116100bb5780636bb1a98c146101295780636f94b16514610152578063715018a614610172578063870aef081461018757600080fd5b8062f714ce146100e157806343b8cc861461010357806362324d1d14610116575b600080fd5b3480156100ed57600080fd5b506101016100fc3660046115e2565b610296565b005b6101016101113660046116d7565b6102d9565b6101016101243660046116d7565b6105de565b34801561013557600080fd5b5061013f60985481565b6040519081526020015b60405180910390f35b34801561015e57600080fd5b5061010161016d36600461173b565b61080f565b34801561017e57600080fd5b5061010161081c565b34801561019357600080fd5b506101016101a23660046116d7565b610830565b3480156101b357600080fd5b5061013f60995481565b3480156101c957600080fd5b506033546040516001600160a01b039091168152602001610149565b6101016101f33660046116d7565b61096f565b6101016102063660046116d7565b610b25565b34801561021757600080fd5b50610101610226366004611754565b610cec565b34801561023757600080fd5b5061026661024636600461178d565b8051602081830181018051609a8252928201919093012091525460ff1681565b6040519015158152602001610149565b34801561028257600080fd5b506101016102913660046117ca565b610e46565b61029e610ed6565b6040516001600160a01b0382169083156108fc029084906000818181858888f193505050501580156102d4573d6000803e3d6000fd5b505050565b6102e1610f30565b80609a816040516102f29190611812565b9081526040519081900360200190205460ff16151560010361032757604051630d75493360e01b815260040160405180910390fd5b6001609a826040516103399190611812565b908152604051908190036020019020805491151560ff1990921691909117905560995442111561038c5760985461036e610f89565b101561038c5760405162976f7560e21b815260040160405180910390fd5b6000806000806000806000806000806103a48d61102e565b99509950995099509950995099509950995099506103c38d8d8a611073565b6103ce82828961112a565b60018960038111156103e2576103e261182e565b1461040057604051639dd0f71360e01b815260040160405180910390fd5b6001600160a01b0384166323b872dd336040516001600160e01b031960e084901b1681526001600160a01b039182166004820152908b16602482015260448101869052606401600060405180830381600087803b15801561046057600080fd5b505af1158015610474573d6000803e3d6000fd5b50505050856001600160a01b03166323b872dd8961048f3390565b6040516001600160e01b031960e085901b1681526001600160a01b03928316600482015291166024820152604481018890526064016020604051808303816000875af11580156104e3573d6000803e3d6000fd5b505050506040513d601f19601f820116820180604052508101906105079190611844565b50335b6001600160a01b0316886001600160a01b03168b60405161052b9190611812565b604051908190038120907f2b738de59cc31294a4f399ebc9d5591e0b0d1581c8c2bbc803b035b4aa47626790600090a4836001600160a01b0316866001600160a01b03168b60405161057d9190611812565b6040805191829003822089835260208301889052908201859052907fb34853ca0c57fe68ddaefaf3dfc36a4dc45044e4b2b679bdb19df4ce66b27a389060600160405180910390a450505050505050505050506105da6001606555565b5050565b6105e6610f30565b80609a816040516105f79190611812565b9081526040519081900360200190205460ff16151560010361062c57604051630d75493360e01b815260040160405180910390fd5b6001609a8260405161063e9190611812565b908152604051908190036020019020805491151560ff1990921691909117905560995442111561069157609854610673610f89565b10156106915760405162976f7560e21b815260040160405180910390fd5b6000806000806000806000806000806106a98d61102e565b99509950995099509950995099509950995099506106c88d8d8a611073565b6106d382828961112a565b60028960038111156106e7576106e761182e565b1461070557604051639dd0f71360e01b815260040160405180910390fd5b6001600160a01b0384166323b872dd336040516001600160e01b031960e084901b1681526001600160a01b039182166004820152908b166024820152604481018690526064016020604051808303816000875af115801561076a573d6000803e3d6000fd5b505050506040513d601f19601f8201168201806040525081019061078e9190611844565b506001600160a01b0386166323b872dd89335b6040516001600160e01b031960e085901b1681526001600160a01b0392831660048201529116602482015260448101889052606401600060405180830381600087803b1580156107f057600080fd5b505af1158015610804573d6000803e3d6000fd5b5050505061050a3390565b610817610ed6565b609955565b610824610ed6565b61082e60006111f5565b565b610838610f30565b80609a816040516108499190611812565b9081526040519081900360200190205460ff16151560010361087e57604051630d75493360e01b815260040160405180910390fd5b6001609a826040516108909190611812565b908152604051908190036020019020805491151560ff199092169190911790556000806108bc8561102e565b505050505050509250509150806001600160a01b03166108d93390565b6001600160a01b031614610919576040517f82b4290000000000000000000000000000000000000000000000000000000000815260040160405180910390fd5b610924858583611073565b816040516109329190611812565b604051908190038120907fbd407d0082e20e5b69bec5f618d97a76d8a2d5c15ef05c9514dd1fa87858a70e90600090a25050506105da6001606555565b610977610f30565b80609a816040516109889190611812565b9081526040519081900360200190205460ff1615156001036109bd57604051630d75493360e01b815260040160405180910390fd5b6001609a826040516109cf9190611812565b908152604051908190036020019020805491151560ff19909216919091179055609954421115610a2257609854610a04610f89565b1015610a225760405162976f7560e21b815260040160405180910390fd5b600080600080600080600080600080610a3a8d61102e565b9950995099509950995099509950995099509950610a598d8d8a611073565b610a6482828961112a565b6003896003811115610a7857610a7861182e565b14610a9657604051639dd0f71360e01b815260040160405180910390fd5b6001600160a01b0384166323b872dd336040516001600160e01b031960e084901b1681526001600160a01b039182166004820152908b16602482015260448101869052606401600060405180830381600087803b158015610af657600080fd5b505af1158015610b0a573d6000803e3d6000fd5b50505050856001600160a01b03166323b872dd896107a13390565b610b2d610f30565b80609a81604051610b3e9190611812565b9081526040519081900360200190205460ff161515600103610b7357604051630d75493360e01b815260040160405180910390fd5b6001609a82604051610b859190611812565b908152604051908190036020019020805491151560ff19909216919091179055609954421115610bd857609854610bba610f89565b1015610bd85760405162976f7560e21b815260040160405180910390fd5b600080600080600080600080600080610bf08d61102e565b9950995099509950995099509950995099509950610c0f8d8d8a611073565b610c1a82828961112a565b6000896003811115610c2e57610c2e61182e565b14610c4c57604051639dd0f71360e01b815260040160405180910390fd5b6001600160a01b0384166323b872dd336040516001600160e01b031960e084901b1681526001600160a01b039182166004820152908b166024820152604481018690526064016020604051808303816000875af1158015610cb1573d6000803e3d6000fd5b505050506040513d601f19601f82011682018060405250810190610cd59190611844565b506001600160a01b0386166323b872dd893361048f565b600054610100900460ff1615808015610d0c5750600054600160ff909116105b80610d265750303b158015610d26575060005460ff166001145b610d9d5760405162461bcd60e51b815260206004820152602e60248201527f496e697469616c697a61626c653a20636f6e747261637420697320616c72656160448201527f647920696e697469616c697a656400000000000000000000000000000000000060648201526084015b60405180910390fd5b6000805460ff191660011790558015610dc0576000805461ff0019166101001790555b610dc8611254565b609884905560998390556097805473ffffffffffffffffffffffffffffffffffffffff19166001600160a01b0384161790558015610e40576000805461ff0019169055604051600181527f7f26b83ff96e1f2b6a682f133852f6798a09c465da95921460cefb38474024989060200160405180910390a15b50505050565b610e4e610ed6565b6001600160a01b038116610eca5760405162461bcd60e51b815260206004820152602660248201527f4f776e61626c653a206e6577206f776e657220697320746865207a65726f206160448201527f64647265737300000000000000000000000000000000000000000000000000006064820152608401610d94565b610ed3816111f5565b50565b6033546001600160a01b0316331461082e5760405162461bcd60e51b815260206004820181905260248201527f4f776e61626c653a2063616c6c6572206973206e6f7420746865206f776e65726044820152606401610d94565b600260655403610f825760405162461bcd60e51b815260206004820152601f60248201527f5265656e7472616e637947756172643a207265656e7472616e742063616c6c006044820152606401610d94565b6002606555565b600080609760009054906101000a90046001600160a01b03166001600160a01b031663feaf968c6040518163ffffffff1660e01b815260040160a060405180830381865afa158015610fdf573d6000803e3d6000fd5b505050506040513d601f19601f820116820180604052508101906110039190611885565b505050915050670de0b6b3a7640000813461101e91906118d5565b6110289190611902565b91505090565b606060008060008060008060008060008a806020019051810190611052919061193e565b99509950995099509950995099509950995099509193959799509193959799565b60006110dd836110d786805190602001206040517f19457468657265756d205369676e6564204d6573736167653a0a3332000000006020820152603c8101829052600090605c01604051602081830303815290604052805190602001209050919050565b906112c7565b9050816001600160a01b0316816001600160a01b031614610e40576040517f8baa579f00000000000000000000000000000000000000000000000000000000815260040160405180910390fd5b468314611163576040517f7a47c9a200000000000000000000000000000000000000000000000000000000815260040160405180910390fd5b8142111561119d576040517f2b32713d00000000000000000000000000000000000000000000000000000000815260040160405180910390fd5b6001600160a01b038116158015906111be57506001600160a01b0381163314155b156102d4576040517f4862d1fc00000000000000000000000000000000000000000000000000000000815260040160405180910390fd5b603380546001600160a01b0383811673ffffffffffffffffffffffffffffffffffffffff19831681179093556040519116919082907f8be0079c531659141344cd1fd0a4f28419497f9722a3daafe3b4186f6b6457e090600090a35050565b600054610100900460ff166112bf5760405162461bcd60e51b815260206004820152602b60248201527f496e697469616c697a61626c653a20636f6e7472616374206973206e6f74206960448201526a6e697469616c697a696e6760a81b6064820152608401610d94565b61082e6112eb565b60008060006112d6858561135f565b915091506112e3816113a4565b509392505050565b600054610100900460ff166113565760405162461bcd60e51b815260206004820152602b60248201527f496e697469616c697a61626c653a20636f6e7472616374206973206e6f74206960448201526a6e697469616c697a696e6760a81b6064820152608401610d94565b61082e336111f5565b60008082516041036113955760208301516040840151606085015160001a61138987828585611509565b9450945050505061139d565b506000905060025b9250929050565b60008160048111156113b8576113b861182e565b036113c05750565b60018160048111156113d4576113d461182e565b036114215760405162461bcd60e51b815260206004820152601860248201527f45434453413a20696e76616c6964207369676e617475726500000000000000006044820152606401610d94565b60028160048111156114355761143561182e565b036114825760405162461bcd60e51b815260206004820152601f60248201527f45434453413a20696e76616c6964207369676e6174757265206c656e677468006044820152606401610d94565b60038160048111156114965761149661182e565b03610ed35760405162461bcd60e51b815260206004820152602260248201527f45434453413a20696e76616c6964207369676e6174757265202773272076616c60448201527f75650000000000000000000000000000000000000000000000000000000000006064820152608401610d94565b6000807f7fffffffffffffffffffffffffffffff5d576e7357a4501ddfe92f46681b20a083111561154057506000905060036115c4565b6040805160008082526020820180845289905260ff881692820192909252606081018690526080810185905260019060a0016020604051602081039080840390855afa158015611594573d6000803e3d6000fd5b5050604051601f1901519150506001600160a01b0381166115bd576000600192509250506115c4565b9150600090505b94509492505050565b6001600160a01b0381168114610ed357600080fd5b600080604083850312156115f557600080fd5b823591506020830135611607816115cd565b809150509250929050565b634e487b7160e01b600052604160045260246000fd5b604051601f8201601f1916810167ffffffffffffffff8111828210171561165157611651611612565b604052919050565b600067ffffffffffffffff82111561167357611673611612565b50601f01601f191660200190565b600082601f83011261169257600080fd5b81356116a56116a082611659565b611628565b8181528460208386010111156116ba57600080fd5b816020850160208301376000918101602001919091529392505050565b600080604083850312156116ea57600080fd5b823567ffffffffffffffff8082111561170257600080fd5b61170e86838701611681565b9350602085013591508082111561172457600080fd5b5061173185828601611681565b9150509250929050565b60006020828403121561174d57600080fd5b5035919050565b60008060006060848603121561176957600080fd5b83359250602084013591506040840135611782816115cd565b809150509250925092565b60006020828403121561179f57600080fd5b813567ffffffffffffffff8111156117b657600080fd5b6117c284828501611681565b949350505050565b6000602082840312156117dc57600080fd5b81356117e7816115cd565b9392505050565b60005b838110156118095781810151838201526020016117f1565b50506000910152565b600082516118248184602087016117ee565b9190910192915050565b634e487b7160e01b600052602160045260246000fd5b60006020828403121561185657600080fd5b815180151581146117e757600080fd5b805169ffffffffffffffffffff8116811461188057600080fd5b919050565b600080600080600060a0868803121561189d57600080fd5b6118a686611866565b94506020860151935060408601519250606086015191506118c960808701611866565b90509295509295909350565b60008160001904831182151516156118fd57634e487b7160e01b600052601160045260246000fd5b500290565b60008261191f57634e487b7160e01b600052601260045260246000fd5b500490565b80516004811061188057600080fd5b8051611880816115cd565b6000806000806000806000806000806101408b8d03121561195e57600080fd5b8a5167ffffffffffffffff81111561197557600080fd5b8b01601f81018d1361198657600080fd5b80516119946116a082611659565b8181528e60208385010111156119a957600080fd5b6119ba8260208301602086016117ee565b9b506119cb91505060208c01611924565b98506119d960408c01611933565b97506119e760608c01611933565b96506119f560808c01611933565b955060a08b01519450611a0a60c08c01611933565b935060e08b015192506101008b015191506101208b015190509295989b9194979a509295985056fea2646970667358221220b9231dd1a846a745c060a3356a002ffc916f623cc267fe32bb045ae74091b5a564736f6c63430008100033",
  "linkReferences": {},
  "deployedLinkReferences": {}
}