{
  "_format": "hh-sol-artifact-1",
  "contractName": "Swaptor",
  "sourceName": "contracts/Swaptor.sol",
  "abi": [
    {
      "inputs": [],
      "name": "InsufficientFee",
      "type": "error"
    },
    {
      "inputs": [],
      "name": "InvalidChainId",
      "type": "error"
    },
    {
      "inputs": [],
      "name": "InvalidSignature",
      "type": "error"
    },
    {
      "inputs": [],
      "name": "InvalidSwapFunctionCalled",
      "type": "error"
    },
    {
      "inputs": [],
      "name": "SignatureUsed",
      "type": "error"
    },
    {
      "inputs": [],
      "name": "SwapExpired",
      "type": "error"
    },
    {
      "inputs": [],
      "name": "Unauthorized",
      "type": "error"
    },
    {
      "inputs": [],
      "name": "UnauthorizedBuyer",
      "type": "error"
    },
    {
      "anonymous": false,
      "inputs": [
        {
          "indexed": false,
          "internalType": "uint8",
          "name": "version",
          "type": "uint8"
        }
      ],
      "name": "Initialized",
      "type": "event"
    },
    {
      "anonymous": false,
      "inputs": [
        {
          "indexed": true,
          "internalType": "address",
          "name": "previousOwner",
          "type": "address"
        },
        {
          "indexed": true,
          "internalType": "address",
          "name": "newOwner",
          "type": "address"
        }
      ],
      "name": "OwnershipTransferred",
      "type": "event"
    },
    {
      "anonymous": false,
      "inputs": [
        {
          "indexed": true,
          "internalType": "bytes",
          "name": "signature",
          "type": "bytes"
        }
      ],
      "name": "SignatureInvalidated",
      "type": "event"
    },
    {
      "anonymous": false,
      "inputs": [
        {
          "indexed": true,
          "internalType": "enum Swaptor.SwapType",
          "name": "swapType",
          "type": "uint8"
        },
        {
          "indexed": true,
          "internalType": "address",
          "name": "offeredERC721",
          "type": "address"
        },
        {
          "indexed": true,
          "internalType": "address",
          "name": "wantedERC721",
          "type": "address"
        },
        {
          "indexed": false,
          "internalType": "address",
          "name": "seller",
          "type": "address"
        },
        {
          "indexed": false,
          "internalType": "address",
          "name": "buyer",
          "type": "address"
        },
        {
          "indexed": false,
          "internalType": "uint256",
          "name": "offeredERC721TokenId",
          "type": "uint256"
        },
        {
          "indexed": false,
          "internalType": "uint256",
          "name": "wantedERC721TokenId",
          "type": "uint256"
        }
      ],
      "name": "Swap",
      "type": "event"
    },
    {
      "inputs": [
        {
          "internalType": "bytes",
          "name": "_data",
          "type": "bytes"
        },
        {
          "internalType": "bytes",
          "name": "_signature",
          "type": "bytes"
        }
      ],
      "name": "cancelSwap",
      "outputs": [],
      "stateMutability": "nonpayable",
      "type": "function"
    },
    {
      "inputs": [],
      "name": "feeInUsd",
      "outputs": [
        {
          "internalType": "uint256",
          "name": "",
          "type": "uint256"
        }
      ],
      "stateMutability": "view",
      "type": "function"
    },
    {
      "inputs": [],
      "name": "freeTrialEndTime",
      "outputs": [
        {
          "internalType": "uint256",
          "name": "",
          "type": "uint256"
        }
      ],
      "stateMutability": "view",
      "type": "function"
    },
    {
      "inputs": [
        {
          "internalType": "uint256",
          "name": "_feeInUsd",
          "type": "uint256"
        },
        {
          "internalType": "uint256",
          "name": "_freeTrialEndTime",
          "type": "uint256"
        },
        {
          "internalType": "address",
          "name": "_priceFeed",
          "type": "address"
        }
      ],
      "name": "initialize",
      "outputs": [],
      "stateMutability": "nonpayable",
      "type": "function"
    },
    {
      "inputs": [],
      "name": "owner",
      "outputs": [
        {
          "internalType": "address",
          "name": "",
          "type": "address"
        }
      ],
      "stateMutability": "view",
      "type": "function"
    },
    {
      "inputs": [],
      "name": "renounceOwnership",
      "outputs": [],
      "stateMutability": "nonpayable",
      "type": "function"
    },
    {
      "inputs": [
        {
          "internalType": "uint256",
          "name": "_freeTrialEndTime",
          "type": "uint256"
        }
      ],
      "name": "setFreeTrialEndTime",
      "outputs": [],
      "stateMutability": "nonpayable",
      "type": "function"
    },
    {
      "inputs": [
        {
          "internalType": "bytes",
          "name": "",
          "type": "bytes"
        }
      ],
      "name": "signatureUsed",
      "outputs": [
        {
          "internalType": "bool",
          "name": "",
          "type": "bool"
        }
      ],
      "stateMutability": "view",
      "type": "function"
    },
    {
      "inputs": [
        {
          "internalType": "bytes",
          "name": "_data",
          "type": "bytes"
        },
        {
          "internalType": "bytes",
          "name": "_signature",
          "type": "bytes"
        }
      ],
      "name": "swapERC20ForERC20",
      "outputs": [],
      "stateMutability": "payable",
      "type": "function"
    },
    {
      "inputs": [
        {
          "internalType": "bytes",
          "name": "_data",
          "type": "bytes"
        },
        {
          "internalType": "bytes",
          "name": "_signature",
          "type": "bytes"
        }
      ],
      "name": "swapERC20ForERC721",
      "outputs": [],
      "stateMutability": "payable",
      "type": "function"
    },
    {
      "inputs": [
        {
          "internalType": "bytes",
          "name": "_data",
          "type": "bytes"
        },
        {
          "internalType": "bytes",
          "name": "_signature",
          "type": "bytes"
        }
      ],
      "name": "swapERC721ForERC20",
      "outputs": [],
      "stateMutability": "payable",
      "type": "function"
    },
    {
      "inputs": [
        {
          "internalType": "bytes",
          "name": "_data",
          "type": "bytes"
        },
        {
          "internalType": "bytes",
          "name": "_signature",
          "type": "bytes"
        }
      ],
      "name": "swapERC721ForERC721",
      "outputs": [],
      "stateMutability": "payable",
      "type": "function"
    },
    {
      "inputs": [
        {
          "internalType": "address",
          "name": "newOwner",
          "type": "address"
        }
      ],
      "name": "transferOwnership",
      "outputs": [],
      "stateMutability": "nonpayable",
      "type": "function"
    },
    {
      "inputs": [
        {
          "internalType": "uint256",
          "name": "_amount",
          "type": "uint256"
        },
        {
          "internalType": "address",
          "name": "_recipient",
          "type": "address"
        }
      ],
      "name": "withdraw",
      "outputs": [],
      "stateMutability": "nonpayable",
      "type": "function"
    }
  ],
  "bytecode": "0x608060405234801561001057600080fd5b50611a67806100206000396000f3fe6080604052600436106100dc5760003560e01c80638c3961261161007f578063a68a7a3b11610059578063a68a7a3b146101f8578063a6ab36f21461020b578063bb10c8291461022b578063f2fde38b1461027657600080fd5b80638c396126146101a75780638da5cb5b146101bd578063a2e3fa4f146101e557600080fd5b80636bb1a98c116100bb5780636bb1a98c146101295780636f94b16514610152578063715018a614610172578063870aef081461018757600080fd5b8062f714ce146100e157806343b8cc861461010357806362324d1d14610116575b600080fd5b3480156100ed57600080fd5b506101016100fc366004611682565b610296565b005b610101610111366004611755565b6102d9565b610101610124366004611755565b61057d565b34801561013557600080fd5b5061013f60995481565b6040519081526020015b60405180910390f35b34801561015e57600080fd5b5061010161016d3660046117b9565b6107b8565b34801561017e57600080fd5b506101016107c5565b34801561019357600080fd5b506101016101a2366004611755565b6107d9565b3480156101b357600080fd5b5061013f60985481565b3480156101c957600080fd5b506033546040516001600160a01b039091168152602001610149565b6101016101f3366004611755565b610914565b610101610206366004611755565b610b43565b34801561021757600080fd5b506101016102263660046117d2565b610d90565b34801561023757600080fd5b5061026661024636600461180b565b8051602081830181018051609a8252928201919093012091525460ff1681565b6040519015158152602001610149565b34801561028257600080fd5b50610101610291366004611848565b610eea565b61029e610f7a565b6040516001600160a01b0382169083156108fc029084906000818181858888f193505050501580156102d4573d6000803e3d6000fd5b505050565b6102e1610fd4565b80609a816040516102f2919061186c565b9081526040519081900360200190205460ff16151560010361032757604051630d75493360e01b815260040160405180910390fd5b6001609a82604051610339919061186c565b908152604051908190036020019020805491151560ff1990921691909117905560985442111561038c5760995461036e61102d565b101561038c5760405162976f7560e21b815260040160405180910390fd5b60008060008060008060008060006103a38c6110d2565b9850985098509850985098509850985098506103c08c8c8a611113565b6103cb8282896111ca565b60018960038111156103df576103df61189b565b146103fd57604051639dd0f71360e01b815260040160405180910390fd5b6001600160a01b0384166323b872dd336040516001600160e01b031960e084901b1681526001600160a01b039182166004820152908b16602482015260448101869052606401600060405180830381600087803b15801561045d57600080fd5b505af1158015610471573d6000803e3d6000fd5b50505050856001600160a01b03166323b872dd8961048c3390565b6040516001600160e01b031960e085901b1681526001600160a01b03928316600482015291166024820152604481018890526064016020604051808303816000875af11580156104e0573d6000803e3d6000fd5b505050506040513d601f19601f8201168201806040525081019061050491906118b1565b506001600160a01b0380851690871660015b604080516001600160a01b038d1681523360208201528082018a90526060810188905290517f83b12020cebd1d9ce669793959a6d6d48f26757609759d2bb7a45590a158c6579181900360800190a4505050505050505050506105796001606555565b5050565b610585610fd4565b80609a81604051610596919061186c565b9081526040519081900360200190205460ff1615156001036105cb57604051630d75493360e01b815260040160405180910390fd5b6001609a826040516105dd919061186c565b908152604051908190036020019020805491151560ff199092169190911790556098544211156106305760995461061261102d565b10156106305760405162976f7560e21b815260040160405180910390fd5b60008060008060008060008060006106478c6110d2565b9850985098509850985098509850985098506106648c8c8a611113565b61066f8282896111ca565b60028960038111156106835761068361189b565b146106a157604051639dd0f71360e01b815260040160405180910390fd5b6001600160a01b0384166323b872dd336040516001600160e01b031960e084901b1681526001600160a01b039182166004820152908b166024820152604481018690526064016020604051808303816000875af1158015610706573d6000803e3d6000fd5b505050506040513d601f19601f8201168201806040525081019061072a91906118b1565b506001600160a01b0386166323b872dd89336040516001600160e01b031960e085901b1681526001600160a01b0392831660048201529116602482015260448101889052606401600060405180830381600087803b15801561078b57600080fd5b505af115801561079f573d6000803e3d6000fd5b5050506001600160a01b03858116915087166002610516565b6107c0610f7a565b609855565b6107cd610f7a565b6107d76000611295565b565b6107e1610fd4565b80609a816040516107f2919061186c565b9081526040519081900360200190205460ff16151560010361082757604051630d75493360e01b815260040160405180910390fd5b6001609a82604051610839919061186c565b908152604051908190036020019020805491151560ff199092169190911790556000610864846110d2565b50505050505050915050806001600160a01b031661087f3390565b6001600160a01b0316146108bf576040517f82b4290000000000000000000000000000000000000000000000000000000000815260040160405180910390fd5b6108ca848483611113565b826040516108d8919061186c565b604051908190038120907f8e124e9e62a4a09d341c1eb1f8feeec1f06c7426a3f778504523ee6e6550332890600090a250506105796001606555565b61091c610fd4565b80609a8160405161092d919061186c565b9081526040519081900360200190205460ff16151560010361096257604051630d75493360e01b815260040160405180910390fd5b6001609a82604051610974919061186c565b908152604051908190036020019020805491151560ff199092169190911790556098544211156109c7576099546109a961102d565b10156109c75760405162976f7560e21b815260040160405180910390fd5b60008060008060008060008060006109de8c6110d2565b9850985098509850985098509850985098506109fb8c8c8a611113565b610a068282896111ca565b6003896003811115610a1a57610a1a61189b565b14610a3857604051639dd0f71360e01b815260040160405180910390fd5b6001600160a01b0384166323b872dd336040516001600160e01b031960e084901b1681526001600160a01b039182166004820152908b16602482015260448101869052606401600060405180830381600087803b158015610a9857600080fd5b505af1158015610aac573d6000803e3d6000fd5b50505050856001600160a01b03166323b872dd89610ac73390565b6040516001600160e01b031960e085901b1681526001600160a01b0392831660048201529116602482015260448101889052606401600060405180830381600087803b158015610b1657600080fd5b505af1158015610b2a573d6000803e3d6000fd5b5050506001600160a01b03858116915087166003610516565b610b4b610fd4565b80609a81604051610b5c919061186c565b9081526040519081900360200190205460ff161515600103610b9157604051630d75493360e01b815260040160405180910390fd5b6001609a82604051610ba3919061186c565b908152604051908190036020019020805491151560ff19909216919091179055609854421115610bf657609954610bd861102d565b1015610bf65760405162976f7560e21b815260040160405180910390fd5b6000806000806000806000806000610c0d8c6110d2565b985098509850985098509850985098509850610c2a8c8c8a611113565b610c358282896111ca565b6000896003811115610c4957610c4961189b565b14610c6757604051639dd0f71360e01b815260040160405180910390fd5b6001600160a01b0384166323b872dd336040516001600160e01b031960e084901b1681526001600160a01b039182166004820152908b166024820152604481018690526064016020604051808303816000875af1158015610ccc573d6000803e3d6000fd5b505050506040513d601f19601f82011682018060405250810190610cf091906118b1565b506001600160a01b0386166323b872dd89336040516001600160e01b031960e085901b1681526001600160a01b03928316600482015291166024820152604481018890526064016020604051808303816000875af1158015610d56573d6000803e3d6000fd5b505050506040513d601f19601f82011682018060405250810190610d7a91906118b1565b506001600160a01b038085169087166000610516565b600054610100900460ff1615808015610db05750600054600160ff909116105b80610dca5750303b158015610dca575060005460ff166001145b610e415760405162461bcd60e51b815260206004820152602e60248201527f496e697469616c697a61626c653a20636f6e747261637420697320616c72656160448201527f647920696e697469616c697a656400000000000000000000000000000000000060648201526084015b60405180910390fd5b6000805460ff191660011790558015610e64576000805461ff0019166101001790555b610e6c6112f4565b609984905560988390556097805473ffffffffffffffffffffffffffffffffffffffff19166001600160a01b0384161790558015610ee4576000805461ff0019169055604051600181527f7f26b83ff96e1f2b6a682f133852f6798a09c465da95921460cefb38474024989060200160405180910390a15b50505050565b610ef2610f7a565b6001600160a01b038116610f6e5760405162461bcd60e51b815260206004820152602660248201527f4f776e61626c653a206e6577206f776e657220697320746865207a65726f206160448201527f64647265737300000000000000000000000000000000000000000000000000006064820152608401610e38565b610f7781611295565b50565b6033546001600160a01b031633146107d75760405162461bcd60e51b815260206004820181905260248201527f4f776e61626c653a2063616c6c6572206973206e6f7420746865206f776e65726044820152606401610e38565b6002606554036110265760405162461bcd60e51b815260206004820152601f60248201527f5265656e7472616e637947756172643a207265656e7472616e742063616c6c006044820152606401610e38565b6002606555565b600080609760009054906101000a90046001600160a01b03166001600160a01b031663feaf968c6040518163ffffffff1660e01b815260040160a060405180830381865afa158015611083573d6000803e3d6000fd5b505050506040513d601f19601f820116820180604052508101906110a791906118f2565b505050915050670de0b6b3a764000081346110c29190611942565b6110cc919061196f565b91505090565b6000806000806000806000806000898060200190518101906110f49190611991565b9850985098509850985098509850985098509193959799909294969850565b600061117d8361117786805190602001206040517f19457468657265756d205369676e6564204d6573736167653a0a3332000000006020820152603c8101829052600090605c01604051602081830303815290604052805190602001209050919050565b90611367565b9050816001600160a01b0316816001600160a01b031614610ee4576040517f8baa579f00000000000000000000000000000000000000000000000000000000815260040160405180910390fd5b468314611203576040517f7a47c9a200000000000000000000000000000000000000000000000000000000815260040160405180910390fd5b8142111561123d576040517f2b32713d00000000000000000000000000000000000000000000000000000000815260040160405180910390fd5b6001600160a01b0381161580159061125e57506001600160a01b0381163314155b156102d4576040517f4862d1fc00000000000000000000000000000000000000000000000000000000815260040160405180910390fd5b603380546001600160a01b0383811673ffffffffffffffffffffffffffffffffffffffff19831681179093556040519116919082907f8be0079c531659141344cd1fd0a4f28419497f9722a3daafe3b4186f6b6457e090600090a35050565b600054610100900460ff1661135f5760405162461bcd60e51b815260206004820152602b60248201527f496e697469616c697a61626c653a20636f6e7472616374206973206e6f74206960448201526a6e697469616c697a696e6760a81b6064820152608401610e38565b6107d761138b565b600080600061137685856113ff565b9150915061138381611444565b509392505050565b600054610100900460ff166113f65760405162461bcd60e51b815260206004820152602b60248201527f496e697469616c697a61626c653a20636f6e7472616374206973206e6f74206960448201526a6e697469616c697a696e6760a81b6064820152608401610e38565b6107d733611295565b60008082516041036114355760208301516040840151606085015160001a611429878285856115a9565b9450945050505061143d565b506000905060025b9250929050565b60008160048111156114585761145861189b565b036114605750565b60018160048111156114745761147461189b565b036114c15760405162461bcd60e51b815260206004820152601860248201527f45434453413a20696e76616c6964207369676e617475726500000000000000006044820152606401610e38565b60028160048111156114d5576114d561189b565b036115225760405162461bcd60e51b815260206004820152601f60248201527f45434453413a20696e76616c6964207369676e6174757265206c656e677468006044820152606401610e38565b60038160048111156115365761153661189b565b03610f775760405162461bcd60e51b815260206004820152602260248201527f45434453413a20696e76616c6964207369676e6174757265202773272076616c60448201527f75650000000000000000000000000000000000000000000000000000000000006064820152608401610e38565b6000807f7fffffffffffffffffffffffffffffff5d576e7357a4501ddfe92f46681b20a08311156115e05750600090506003611664565b6040805160008082526020820180845289905260ff881692820192909252606081018690526080810185905260019060a0016020604051602081039080840390855afa158015611634573d6000803e3d6000fd5b5050604051601f1901519150506001600160a01b03811661165d57600060019250925050611664565b9150600090505b94509492505050565b6001600160a01b0381168114610f7757600080fd5b6000806040838503121561169557600080fd5b8235915060208301356116a78161166d565b809150509250929050565b634e487b7160e01b600052604160045260246000fd5b600082601f8301126116d957600080fd5b813567ffffffffffffffff808211156116f4576116f46116b2565b604051601f8301601f19908116603f0116810190828211818310171561171c5761171c6116b2565b8160405283815286602085880101111561173557600080fd5b836020870160208301376000602085830101528094505050505092915050565b6000806040838503121561176857600080fd5b823567ffffffffffffffff8082111561178057600080fd5b61178c868387016116c8565b935060208501359150808211156117a257600080fd5b506117af858286016116c8565b9150509250929050565b6000602082840312156117cb57600080fd5b5035919050565b6000806000606084860312156117e757600080fd5b833592506020840135915060408401356118008161166d565b809150509250925092565b60006020828403121561181d57600080fd5b813567ffffffffffffffff81111561183457600080fd5b611840848285016116c8565b949350505050565b60006020828403121561185a57600080fd5b81356118658161166d565b9392505050565b6000825160005b8181101561188d5760208186018101518583015201611873565b506000920191825250919050565b634e487b7160e01b600052602160045260246000fd5b6000602082840312156118c357600080fd5b8151801515811461186557600080fd5b805169ffffffffffffffffffff811681146118ed57600080fd5b919050565b600080600080600060a0868803121561190a57600080fd5b611913866118d3565b9450602086015193506040860151925060608601519150611936608087016118d3565b90509295509295909350565b600081600019048311821515161561196a57634e487b7160e01b600052601160045260246000fd5b500290565b60008261198c57634e487b7160e01b600052601260045260246000fd5b500490565b60008060008060008060008060006101208a8c0312156119b057600080fd5b8951600481106119bf57600080fd5b60208b01519099506119d08161166d565b60408b01519098506119e18161166d565b60608b01519097506119f28161166d565b60808b015160a08c01519197509550611a0a8161166d565b8094505060c08a0151925060e08a015191506101008a01519050929598509295985092959856fea2646970667358221220bedde00074b3d581eaba85291e8c2a3efdf6bf76c0697a348cab58694a6a9f6864736f6c63430008100033",
  "linkReferences": {},
  "deployedLinkReferences": {}
}